:100000000C942A000C943F000C943F000C943F0089
:100010000C943F000C943F000C943F000C943F0064
:100020000C943F000C943F000C943F000C943F0054
:100030000C943F000C943F000C943F000C943F0044
:100040000C943F000C943F000C943F000C943F0034
:100050000C943F0011241FBECFE5D8E0DEBFCDBF1A
:1000600010E0A0E6B0E0EAE9F6E002C005900D92EB
:10007000A237B107D9F70E9470020C944B030C947D
:1000800000003E9A3F9A379A329A319A309A0895F0
:1000900097B1907E8F71892B87B9369A349BFECFAA
:1000A000349A84B125B190E0922B08954130A1F5A6
:1000B000813089F028F08230C9F0833011F1089541
:1000C0002AB381E090E002C0880F991F6A95E2F799
:1000D000822B8ABB089527B381E090E002C0880F8D
:1000E000991F6A95E2F7822B87BB089524B381E0BC
:1000F00090E002C0880F991F6A95E2F7822B84BBBB
:10010000089521B381E090E002C0880F991F6A959D
:10011000E2F7822B81BB0895411137C0813091F005
:1001200028F08230D9F0833029F108952AB381E094
:1001300090E002C0880F991F6A95E2F780958223AC
:100140008ABB089527B381E090E002C0880F991F11
:100150006A95E2F78095822387BB089524B381E0F6
:1001600090E002C0880F991F6A95E2F7809582237C
:1001700084BB089521B381E090E002C0880F991FED
:100180006A95E2F78095822381BB08956130A1F4DE
:10019000813049F028F0823049F0833051F00895E1
:1001A0008FEF8ABB08958FEF87BB08958FEF84BBD5
:1001B00008958FEF81BB089561110FC0813041F028
:1001C00028F0823039F0833039F008951ABA089552
:1001D00017BA089514BA089511BA0895813011F12B
:1001E00030F08230D1F1833009F452C008954130AB
:1001F00059F42BB381E090E002C0880F991F6A95F3
:10020000E2F7822B8BBB089541115CC02BB381E0D8
:1002100090E002C0880F991F6A95E2F780958223CB
:100220008BBB0895413059F428B381E090E002C0BF
:10023000880F991F6A95E2F7822B88BB08954111B8
:1002400041C028B381E090E002C0880F991F6A95F1
:10025000E2F78095822388BB0895413059F425B395
:1002600081E090E002C0880F991F6A95E2F7822B27
:1002700085BB0895411126C025B381E090E002C0FE
:10028000880F991F6A95E2F78095822385BB0895B0
:10029000413059F422B381E090E002C0880F991FE9
:1002A0006A95E2F7822B82BB089541110BC022B3FD
:1002B00081E090E002C0880F991F6A95E2F780956F
:1002C000822382BB0895813041F028F0823039F0DA
:1002D000833039F008956BBB089568BB089565BB02
:1002E000089562BB0895CF93C82F682F607F80E088
:1002F0000E94630140E061E082E00E94EE0041E084
:1003000063E082E00E94EE002FEF80E792E0215050
:1003100080409040E1F700C0000040E063E082E0F0
:100320000E94EE008FE19EE40197F1F700C000000B
:100330006C2F6295607F80E00E94630140E061E085
:1003400082E00E94EE0041E063E082E00E94EE0065
:100350009FEF20E782E0915020408040E1F700C00D
:10036000000040E063E082E00E94EE008FE39FE146
:100370000197F1F700C00000CF91089541E062E0DD
:1003800082E00E94560041E061E082E00E94560057
:1003900041E063E082E00E94560061E080E00E945C
:1003A000C60040E062E082E00E94EE002FE788E3B2
:1003B00091E0215080409040E1F700C0000083E3CD
:1003C0000E9473018FE193E00197F1F700C00000F4
:1003D00082E30E94730188E20E94730186E00E941A
:1003E00073018CE00E94730181E00E9473018FE32E
:1003F0009FE10197F1F700C000000895CF93C82F47
:10040000682F607F80E00E94630141E061E082E04C
:100410000E94EE0041E063E082E00E94EE002FEFD8
:1004200080E792E0215080409040E1F700C000005A
:1004300040E063E082E00E94EE008FE19EE40197DD
:10044000F1F700C000006C2F6295607F80E00E9491
:10045000630141E061E082E00E94EE0041E063E080
:1004600082E00E94EE009FEF20E782E09150204062
:100470008040E1F700C0000040E063E082E00E94BD
:10048000EE008FE39FE10197F1F700C00000CF91EC
:1004900008950F931F93CF93FC018081882359F017
:1004A0008F01C0E00E94FE01CF5FF801EC0FF11D4B
:1004B00080818111F7CFCF911F910F9108958130E5
:1004C00019F0823039F00895862F8F7080680E946D
:1004D00073010895862F8F70806C0E9473010895B8
:1004E000CF93DF93CDB7DEB760970FB6F894DEBF3A
:1004F0000FBECDBFBB9ABE98BF98A09A1CBE83B753
:10050000836683BF0E9441000E94BE010E940B03CC
:1005100010E0CC24CA940F2EFCECDF2EF02D0F2E11
:10052000F6E6EF2EF02D0F2EF3E3FF2EF02D09E966
:100530000E941203813311F4A89AFACF823311F486
:10054000A898F6CF8B32D9F41F5F133079F028F4D6
:10055000113041F0123041F00EC0143049F0153026
:1005600049F009C0FCBE07C0ECBE05C00CBF03C00B
:10057000DCBE01C0CCBE1630D8F215E0D9CF8D322A
:1005800071F41150D9F51CBED3CFFCBED1CFECBE57
:10059000CFCF0CBFCDCFDCBECBCFCCBEC9CF83334A
:1005A00039F681E00E9448004AE0BE016F5F7F4F4C
:1005B00096958795969587950E94160360E081E051
:1005C0000E945F0280E690E00E94490260E082E0C3
:1005D0000E945F02CE0101960E94490224E53DEC93
:1005E0008DE293E02150304080409040D9F700C028
:1005F00000C0000081E00E9473019ACF133049F2DD
:1006000028F4113011F2123011F292CF143019F295
:10061000153019F28DCF87B38F7487BBBE9A80E4F3
:100620008DB90895779BFECF8FB10895BB274A30CF
:1006300031F4992322F4BDE2909581959F4F0C945B
:100640002203BB27FB015527AA27880F991FAA1F42
:10065000A41710F0A41B83955051B9F7A05DAA33DD
:1006600008F0A95DA193009779F7B111B1931192A8
:10067000CB010C943B03DC01FC01672F71917723C4
:10068000E1F7329704C07C916D9370836291AE174D
:0A069000BF07C8F30895F894FFCFE8
:10069A005468652074656D70657261747572652041
:0206AA003D0011
:00000001FF
