:100000000C942A000C943F000C943F000C943F0089
:100010000C943F000C943F000C943F000C943F0064
:100020000C943F000C943F000C943F000C943F0054
:100030000C943F000C943F000C943F000C943F0044
:100040000C943F000C943F000C943F000C943F0034
:100050000C943F0011241FBECFE5D8E0DEBFCDBF1A
:1000600010E0A0E6B0E0ECE4F6E002C005900D92EE
:10007000A23BB107D9F70E945B020C9424030C94B5
:1000800000004130A1F5813089F028F08230C9F0BC
:10009000833011F108952AB381E090E002C0880F07
:1000A000991F6A95E2F7822B8ABB089527B381E0F6
:1000B00090E002C0880F991F6A95E2F7822B87BBF8
:1000C000089524B381E090E002C0880F991F6A95DB
:1000D000E2F7822B84BB089521B381E090E002C057
:1000E000880F991F6A95E2F7822B81BB0895411111
:1000F00037C0813091F028F08230D9F0833029F177
:1001000008952AB381E090E002C0880F991F6A9594
:10011000E2F7809582238ABB089527B381E090E0BF
:1001200002C0880F991F6A95E2F78095822387BBEA
:10013000089524B381E090E002C0880F991F6A956A
:10014000E2F78095822384BB089521B381E090E09B
:1001500002C0880F991F6A95E2F78095822381BBC0
:1001600008956130A1F4813049F028F0823049F0DF
:10017000833051F008958FEF8ABB08958FEF87BBCE
:1001800008958FEF84BB08958FEF81BB08956111AF
:100190000FC0813041F028F0823039F0833039F0DF
:1001A00008951ABA089517BA089514BA089511BA9D
:1001B0000895813011F130F08230D1F1833009F4AB
:1001C00052C00895413059F42BB381E090E002C051
:1001D000880F991F6A95E2F7822B8BBB0895411116
:1001E0005CC02BB381E090E002C0880F991F6A9534
:1001F000E2F7809582238BBB0895413059F428B3F0
:1002000081E090E002C0880F991F6A95E2F7822B87
:1002100088BB0895411141C028B381E090E002C03D
:10022000880F991F6A95E2F78095822388BB08950D
:10023000413059F425B381E090E002C0880F991F46
:100240006A95E2F7822B85BB0895411126C025B33C
:1002500081E090E002C0880F991F6A95E2F78095CF
:10026000822385BB0895413059F422B381E090E0A8
:1002700002C0880F991F6A95E2F7822B82BB08950E
:1002800041110BC022B381E090E002C0880F991F9A
:100290006A95E2F78095822382BB0895813041F010
:1002A00028F0823039F0833039F008956BBB08951F
:1002B00068BB089565BB089562BB0895CF93C82FAE
:1002C000682F607F80E00E944E0140E061E081E0A5
:1002D0000E94D90041E063E081E00E94D9002FEF45
:1002E00080E792E0215080409040E1F700C000009C
:1002F00040E063E081E00E94D9008FE19EE4019735
:10030000F1F700C000006C2F6295607F80E00E94D2
:100310004E0140E061E081E00E94D90041E063E0ED
:1003200081E00E94D9009FEF20E782E091502040B9
:100330008040E1F700C0000040E063E081E00E94FF
:10034000D9008FE39FE10197F1F700C00000CF9142
:10035000089541E062E081E00E94410041E061E0F7
:1003600081E00E94410041E063E081E00E944100A1
:1003700061E080E00E94B10040E062E081E00E9424
:10038000D9002FE788E391E0215080409040E1F7C9
:1003900000C0000083E30E945E018FE193E00197BB
:1003A000F1F700C0000082E30E945E0188E20E9433
:1003B0005E0186E00E945E018CE00E945E0181E0A9
:1003C0000E945E018FE39FE10197F1F700C00000FA
:1003D0000895CF93C82F682F607F80E00E944E0160
:1003E00041E061E081E00E94D90041E063E081E00A
:1003F0000E94D9002FEF80E792E02150804090408A
:10040000E1F700C0000040E063E081E00E94D90015
:100410008FE19EE40197F1F700C000006C2F629518
:10042000607F80E00E944E0141E061E081E00E9437
:10043000D90041E063E081E00E94D9009FEF20E70E
:1004400082E0915020408040E1F700C0000040E091
:1004500063E081E00E94D9008FE39FE10197F1F70B
:1004600000C00000CF9108950F931F93CF93FC011C
:100470008081882359F08F01C0E00E94E901CF5F9D
:10048000F801EC0FF11D80818111F7CFCF911F9101
:100490000F910895813019F0823039F00895862F38
:1004A0008F7080680E945E010895862F8F70806C27
:1004B0000E945E0108950E940E030E9401030E94A3
:1004C000A901C49880E690E00E9434022FEF89E6EB
:1004D00098E1215080409040E1F700C0000081E0A9
:1004E0000E945E010E9420038133B1F40E940A033E
:1004F00060E080E00E944A028FE690E00E943402B1
:100500002FEF89E698E1215080409040E1F700C04C
:10051000000081E00E945E010E9420038233B1F45A
:100520000E940A0360E080E00E944A028BE790E0AC
:100530000E9434022FEF89E698E1215080409040DC
:10054000E1F700C0000081E00E945E010E942003EC
:100550008333F9F40E940A0360E080E00E944A02BB
:1005600088E890E00E9434022FEF89E698E121505C
:1005700080409040E1F700C0000081E00E945E01F1
:100580002FEF89E698E1215080409040E1F700C0CC
:1005900000000E9420038B32B1F40E940A0360E045
:1005A00080E00E944A0286E990E00E9434022FEF28
:1005B00089E698E1215080409040E1F700C00000BA
:1005C00081E00E945E010E9420038D3209F07ACF03
:1005D0000E940A0360E080E00E944A0284EA90E000
:1005E0000E9434022FEF89E698E12150804090402C
:1005F000E1F700C0000081E00E945E0180E090E031
:10060000089587B3806B87BBBE98C49A81E58DB986
:10061000709808958FB9779BFECF0895539A549A96
:1006200080B5806880BD80B5846080BD80B5826003
:1006300080BD87E689B980B58F7780BD10BC0895ED
:0C0640005F9BFECF8CB10895F894FFCFB3
:10064C00416D7220536D61727420486F6D65004C62
:10065C0045447320617265204F4E004C4544732015
:10066C00617265204F46460052656164696E672071
:10067C0054656D702E004D6F746F72206973206815
:10068C0069672E004D6F746F7220697320736C6FE5
:02069C002E002E
:00000001FF
